{
  "_format": "hh-sol-artifact-1",
  "contractName": "MyNFT",
  "sourceName": "contracts/strings.sol",
  "abi": [
    {
      "inputs": [],
      "stateMutability": "nonpayable",
      "type": "constructor"
    },
    {
      "anonymous": false,
      "inputs": [
        {
          "indexed": true,
          "internalType": "address",
          "name": "owner",
          "type": "address"
        },
        {
          "indexed": true,
          "internalType": "address",
          "name": "approved",
          "type": "address"
        },
        {
          "indexed": true,
          "internalType": "uint256",
          "name": "tokenId",
          "type": "uint256"
        }
      ],
      "name": "Approval",
      "type": "event"
    },
    {
      "anonymous": false,
      "inputs": [
        {
          "indexed": true,
          "internalType": "address",
          "name": "owner",
          "type": "address"
        },
        {
          "indexed": true,
          "internalType": "address",
          "name": "operator",
          "type": "address"
        },
        {
          "indexed": false,
          "internalType": "bool",
          "name": "approved",
          "type": "bool"
        }
      ],
      "name": "ApprovalForAll",
      "type": "event"
    },
    {
      "anonymous": false,
      "inputs": [
        {
          "indexed": true,
          "internalType": "address",
          "name": "from",
          "type": "address"
        },
        {
          "indexed": true,
          "internalType": "address",
          "name": "to",
          "type": "address"
        },
        {
          "indexed": true,
          "internalType": "uint256",
          "name": "tokenId",
          "type": "uint256"
        }
      ],
      "name": "Transfer",
      "type": "event"
    },
    {
      "inputs": [
        {
          "internalType": "address",
          "name": "to",
          "type": "address"
        },
        {
          "internalType": "uint256",
          "name": "tokenId",
          "type": "uint256"
        }
      ],
      "name": "approve",
      "outputs": [],
      "stateMutability": "nonpayable",
      "type": "function"
    },
    {
      "inputs": [
        {
          "internalType": "address",
          "name": "owner",
          "type": "address"
        }
      ],
      "name": "balanceOf",
      "outputs": [
        {
          "internalType": "uint256",
          "name": "",
          "type": "uint256"
        }
      ],
      "stateMutability": "view",
      "type": "function"
    },
    {
      "inputs": [
        {
          "internalType": "string",
          "name": "str",
          "type": "string"
        }
      ],
      "name": "checkIfUsed",
      "outputs": [
        {
          "internalType": "bool",
          "name": "",
          "type": "bool"
        }
      ],
      "stateMutability": "view",
      "type": "function"
    },
    {
      "inputs": [
        {
          "internalType": "uint256",
          "name": "tokenId",
          "type": "uint256"
        }
      ],
      "name": "getApproved",
      "outputs": [
        {
          "internalType": "address",
          "name": "",
          "type": "address"
        }
      ],
      "stateMutability": "view",
      "type": "function"
    },
    {
      "inputs": [
        {
          "internalType": "uint256",
          "name": "tokenId",
          "type": "uint256"
        }
      ],
      "name": "getString",
      "outputs": [
        {
          "internalType": "string",
          "name": "",
          "type": "string"
        }
      ],
      "stateMutability": "view",
      "type": "function"
    },
    {
      "inputs": [
        {
          "internalType": "address",
          "name": "owner",
          "type": "address"
        },
        {
          "internalType": "address",
          "name": "operator",
          "type": "address"
        }
      ],
      "name": "isApprovedForAll",
      "outputs": [
        {
          "internalType": "bool",
          "name": "",
          "type": "bool"
        }
      ],
      "stateMutability": "view",
      "type": "function"
    },
    {
      "inputs": [
        {
          "internalType": "string",
          "name": "str",
          "type": "string"
        }
      ],
      "name": "mintNFT",
      "outputs": [
        {
          "internalType": "uint256",
          "name": "",
          "type": "uint256"
        }
      ],
      "stateMutability": "payable",
      "type": "function"
    },
    {
      "inputs": [],
      "name": "name",
      "outputs": [
        {
          "internalType": "string",
          "name": "",
          "type": "string"
        }
      ],
      "stateMutability": "view",
      "type": "function"
    },
    {
      "inputs": [
        {
          "internalType": "uint256",
          "name": "tokenId",
          "type": "uint256"
        }
      ],
      "name": "ownerOf",
      "outputs": [
        {
          "internalType": "address",
          "name": "",
          "type": "address"
        }
      ],
      "stateMutability": "view",
      "type": "function"
    },
    {
      "inputs": [
        {
          "internalType": "address",
          "name": "from",
          "type": "address"
        },
        {
          "internalType": "address",
          "name": "to",
          "type": "address"
        },
        {
          "internalType": "uint256",
          "name": "tokenId",
          "type": "uint256"
        }
      ],
      "name": "safeTransferFrom",
      "outputs": [],
      "stateMutability": "nonpayable",
      "type": "function"
    },
    {
      "inputs": [
        {
          "internalType": "address",
          "name": "from",
          "type": "address"
        },
        {
          "internalType": "address",
          "name": "to",
          "type": "address"
        },
        {
          "internalType": "uint256",
          "name": "tokenId",
          "type": "uint256"
        },
        {
          "internalType": "bytes",
          "name": "_data",
          "type": "bytes"
        }
      ],
      "name": "safeTransferFrom",
      "outputs": [],
      "stateMutability": "nonpayable",
      "type": "function"
    },
    {
      "inputs": [
        {
          "internalType": "address",
          "name": "operator",
          "type": "address"
        },
        {
          "internalType": "bool",
          "name": "approved",
          "type": "bool"
        }
      ],
      "name": "setApprovalForAll",
      "outputs": [],
      "stateMutability": "nonpayable",
      "type": "function"
    },
    {
      "inputs": [
        {
          "internalType": "bytes4",
          "name": "interfaceId",
          "type": "bytes4"
        }
      ],
      "name": "supportsInterface",
      "outputs": [
        {
          "internalType": "bool",
          "name": "",
          "type": "bool"
        }
      ],
      "stateMutability": "view",
      "type": "function"
    },
    {
      "inputs": [],
      "name": "symbol",
      "outputs": [
        {
          "internalType": "string",
          "name": "",
          "type": "string"
        }
      ],
      "stateMutability": "view",
      "type": "function"
    },
    {
      "inputs": [
        {
          "internalType": "uint256",
          "name": "id",
          "type": "uint256"
        }
      ],
      "name": "tokenURI",
      "outputs": [
        {
          "internalType": "string",
          "name": "",
          "type": "string"
        }
      ],
      "stateMutability": "view",
      "type": "function"
    },
    {
      "inputs": [
        {
          "internalType": "address",
          "name": "from",
          "type": "address"
        },
        {
          "internalType": "address",
          "name": "to",
          "type": "address"
        },
        {
          "internalType": "uint256",
          "name": "tokenId",
          "type": "uint256"
        }
      ],
      "name": "transferFrom",
      "outputs": [],
      "stateMutability": "nonpayable",
      "type": "function"
    }
  ],
  "bytecode": "0x60806040526608e1bc9bf04000600a553480156200001c57600080fd5b506040518060400160405280600a81526020017f5472616e736372697074000000000000000000000000000000000000000000008152506040518060400160405280600381526020017f54524e00000000000000000000000000000000000000000000000000000000008152508160009080519060200190620000a1929190620000c3565b508060019080519060200190620000ba929190620000c3565b505050620001d8565b828054620000d19062000173565b90600052602060002090601f016020900481019282620000f5576000855562000141565b82601f106200011057805160ff191683800117855562000141565b8280016001018555821562000141579182015b828111156200014057825182559160200191906001019062000123565b5b50905062000150919062000154565b5090565b5b808211156200016f57600081600090555060010162000155565b5090565b600060028204905060018216806200018c57607f821691505b60208210811415620001a357620001a2620001a9565b5b50919050565b7f4e487b7100000000000000000000000000000000000000000000000000000000600052602260045260246000fd5b612c5d80620001e86000396000f3fe6080604052600436106100f35760003560e01c806395d89b411161008a578063c87b56dd11610059578063c87b56dd1461034c578063cfcc3e3514610389578063e985e9c5146103c6578063fb37e88314610403576100f3565b806395d89b4114610292578063a22cb465146102bd578063b7c763b5146102e6578063b88d4fde14610323576100f3565b806323b872dd116100c657806323b872dd146101c657806342842e0e146101ef5780636352211e1461021857806370a0823114610255576100f3565b806301ffc9a7146100f857806306fdde0314610135578063081812fc14610160578063095ea7b31461019d575b600080fd5b34801561010457600080fd5b5061011f600480360381019061011a9190611df4565b610433565b60405161012c91906125b5565b60405180910390f35b34801561014157600080fd5b5061014a610515565b60405161015791906125d0565b60405180910390f35b34801561016c57600080fd5b5061018760048036038101906101829190611e87565b6105a7565b604051610194919061254e565b60405180910390f35b3480156101a957600080fd5b506101c460048036038101906101bf9190611db8565b61062c565b005b3480156101d257600080fd5b506101ed60048036038101906101e89190611cb2565b610744565b005b3480156101fb57600080fd5b5061021660048036038101906102119190611cb2565b6107a4565b005b34801561022457600080fd5b5061023f600480360381019061023a9190611e87565b6107c4565b60405161024c919061254e565b60405180910390f35b34801561026157600080fd5b5061027c60048036038101906102779190611c4d565b610876565b60405161028991906127d2565b60405180910390f35b34801561029e57600080fd5b506102a761092e565b6040516102b491906125d0565b60405180910390f35b3480156102c957600080fd5b506102e460048036038101906102df9190611d7c565b6109c0565b005b3480156102f257600080fd5b5061030d60048036038101906103089190611e87565b6109d6565b60405161031a91906125d0565b60405180910390f35b34801561032f57600080fd5b5061034a60048036038101906103459190611d01565b610a7b565b005b34801561035857600080fd5b50610373600480360381019061036e9190611e87565b610add565b60405161038091906125d0565b60405180910390f35b34801561039557600080fd5b506103b060048036038101906103ab9190611e46565b610c48565b6040516103bd91906125b5565b60405180910390f35b3480156103d257600080fd5b506103ed60048036038101906103e89190611c76565b610c7d565b6040516103fa91906125b5565b60405180910390f35b61041d60048036038101906104189190611e46565b610d11565b60405161042a91906127d2565b60405180910390f35b60007f80ac58cd000000000000000000000000000000000000000000000000000000007bffffffffffffffffffffffffffffffffffffffffffffffffffffffff1916827bffffffffffffffffffffffffffffffffffffffffffffffffffffffff191614806104fe57507f5b5e139f000000000000000000000000000000000000000000000000000000007bffffffffffffffffffffffffffffffffffffffffffffffffffffffff1916827bffffffffffffffffffffffffffffffffffffffffffffffffffffffff1916145b8061050e575061050d82610e02565b5b9050919050565b60606000805461052490612a8c565b80601f016020809104026020016040519081016040528092919081815260200182805461055090612a8c565b801561059d5780601f106105725761010080835404028352916020019161059d565b820191906000526020600020905b81548152906001019060200180831161058057829003601f168201915b5050505050905090565b60006105b282610e6c565b6105f1576040517f08c379a00000000000000000000000000000000000000000000000000000000081526004016105e890612712565b60405180910390fd5b6004600083815260200190815260200160002060009054906101000a900473ffffffffffffffffffffffffffffffffffffffff169050919050565b6000610637826107c4565b90508073ffffffffffffffffffffffffffffffffffffffff168373ffffffffffffffffffffffffffffffffffffffff1614156106a8576040517f08c379a000000000000000000000000000000000000000000000000000000000815260040161069f90612752565b60405180910390fd5b8073ffffffffffffffffffffffffffffffffffffffff166106c7610ed8565b73ffffffffffffffffffffffffffffffffffffffff1614806106f657506106f5816106f0610ed8565b610c7d565b5b610735576040517f08c379a000000000000000000000000000000000000000000000000000000000815260040161072c90612692565b60405180910390fd5b61073f8383610ee0565b505050565b61075561074f610ed8565b82610f99565b610794576040517f08c379a000000000000000000000000000000000000000000000000000000000815260040161078b90612772565b60405180910390fd5b61079f838383611077565b505050565b6107bf83838360405180602001604052806000815250610a7b565b505050565b6000806002600084815260200190815260200160002060009054906101000a900473ffffffffffffffffffffffffffffffffffffffff169050600073ffffffffffffffffffffffffffffffffffffffff168173ffffffffffffffffffffffffffffffffffffffff16141561086d576040517f08c379a0000000000000000000000000000000000000000000000000000000008152600401610864906126d2565b60405180910390fd5b80915050919050565b60008073ffffffffffffffffffffffffffffffffffffffff168273ffffffffffffffffffffffffffffffffffffffff1614156108e7576040517f08c379a00000000000000000000000000000000000000000000000000000000081526004016108de906126b2565b60405180910390fd5b600360008373ffffffffffffffffffffffffffffffffffffffff1673ffffffffffffffffffffffffffffffffffffffff168152602001908152602001600020549050919050565b60606001805461093d90612a8c565b80601f016020809104026020016040519081016040528092919081815260200182805461096990612a8c565b80156109b65780601f1061098b576101008083540402835291602001916109b6565b820191906000526020600020905b81548152906001019060200180831161099957829003601f168201915b5050505050905090565b6109d26109cb610ed8565b83836112d3565b5050565b60606009600083815260200190815260200160002080546109f690612a8c565b80601f0160208091040260200160405190810160405280929190818152602001828054610a2290612a8c565b8015610a6f5780601f10610a4457610100808354040283529160200191610a6f565b820191906000526020600020905b815481529060010190602001808311610a5257829003601f168201915b50505050509050919050565b610a8c610a86610ed8565b83610f99565b610acb576040517f08c379a0000000000000000000000000000000000000000000000000000000008152600401610ac290612772565b60405180910390fd5b610ad784848484611440565b50505050565b606060006040518060400160405280601d81526020017f646174613a6170706c69636174696f6e2f6a736f6e3b6261736536342c00000081525090506000610c2b6040518060400160405280600c81526020017f7b0a09226e616d65223a20220000000000000000000000000000000000000000815250600960008781526020019081526020016000208054610b7290612a8c565b80601f0160208091040260200160405190810160405280929190818152602001828054610b9e90612a8c565b8015610beb5780601f10610bc057610100808354040283529160200191610beb565b820191906000526020600020905b815481529060010190602001808311610bce57829003601f168201915b50505050506040518060400160405280600381526020017f220a7d000000000000000000000000000000000000000000000000000000000081525061149c565b9050610c3f82610c3a836114cb565b61166a565b92505050919050565b6000600882604051610c5a91906124e2565b908152602001604051809103902060009054906101000a900460ff169050919050565b6000600560008473ffffffffffffffffffffffffffffffffffffffff1673ffffffffffffffffffffffffffffffffffffffff16815260200190815260200160002060008373ffffffffffffffffffffffffffffffffffffffff1673ffffffffffffffffffffffffffffffffffffffff16815260200190815260200160002060009054906101000a900460ff16905092915050565b600080349050600a54811015610d5c576040517f08c379a0000000000000000000000000000000000000000000000000000000008152600401610d5390612792565b60405180910390fd5b610d6583610c48565b15610da5576040517f08c379a0000000000000000000000000000000000000000000000000000000008152600401610d9c906127b2565b60405180910390fd5b610dae83611696565b6000610dba60076116d0565b9050610dc660076116de565b83600960008381526020019081526020016000209080519060200190610ded929190611a71565b50610df833826116f4565b8092505050919050565b60007f01ffc9a7000000000000000000000000000000000000000000000000000000007bffffffffffffffffffffffffffffffffffffffffffffffffffffffff1916827bffffffffffffffffffffffffffffffffffffffffffffffffffffffff1916149050919050565b60008073ffffffffffffffffffffffffffffffffffffffff166002600084815260200190815260200160002060009054906101000a900473ffffffffffffffffffffffffffffffffffffffff1673ffffffffffffffffffffffffffffffffffffffff1614159050919050565b600033905090565b816004600083815260200190815260200160002060006101000a81548173ffffffffffffffffffffffffffffffffffffffff021916908373ffffffffffffffffffffffffffffffffffffffff160217905550808273ffffffffffffffffffffffffffffffffffffffff16610f53836107c4565b73ffffffffffffffffffffffffffffffffffffffff167f8c5be1e5ebec7d5bd14f71427d1e84f3dd0314c0f7b2291e5b200ac8c7c3b92560405160405180910390a45050565b6000610fa482610e6c565b610fe3576040517f08c379a0000000000000000000000000000000000000000000000000000000008152600401610fda90612672565b60405180910390fd5b6000610fee836107c4565b90508073ffffffffffffffffffffffffffffffffffffffff168473ffffffffffffffffffffffffffffffffffffffff16148061105d57508373ffffffffffffffffffffffffffffffffffffffff16611045846105a7565b73ffffffffffffffffffffffffffffffffffffffff16145b8061106e575061106d8185610c7d565b5b91505092915050565b8273ffffffffffffffffffffffffffffffffffffffff16611097826107c4565b73ffffffffffffffffffffffffffffffffffffffff16146110ed576040517f08c379a00000000000000000000000000000000000000000000000000000000081526004016110e490612732565b60405180910390fd5b600073ffffffffffffffffffffffffffffffffffffffff168273ffffffffffffffffffffffffffffffffffffffff16141561115d576040517f08c379a000000000000000000000000000000000000000000000000000000000815260040161115490612632565b60405180910390fd5b6111688383836118c2565b611173600082610ee0565b6001600360008573ffffffffffffffffffffffffffffffffffffffff1673ffffffffffffffffffffffffffffffffffffffff16815260200190815260200160002060008282546111c391906129a2565b925050819055506001600360008473ffffffffffffffffffffffffffffffffffffffff1673ffffffffffffffffffffffffffffffffffffffff168152602001908152602001600020600082825461121a91906128c1565b92505081905550816002600083815260200190815260200160002060006101000a81548173ffffffffffffffffffffffffffffffffffffffff021916908373ffffffffffffffffffffffffffffffffffffffff160217905550808273ffffffffffffffffffffffffffffffffffffffff168473ffffffffffffffffffffffffffffffffffffffff167fddf252ad1be2c89b69c2b068fc378daa952ba7f163c4a11628f55a4df523b3ef60405160405180910390a4505050565b8173ffffffffffffffffffffffffffffffffffffffff168373ffffffffffffffffffffffffffffffffffffffff161415611342576040517f08c379a000000000000000000000000000000000000000000000000000000000815260040161133990612652565b60405180910390fd5b80600560008573ffffffffffffffffffffffffffffffffffffffff1673ffffffffffffffffffffffffffffffffffffffff16815260200190815260200160002060008473ffffffffffffffffffffffffffffffffffffffff1673ffffffffffffffffffffffffffffffffffffffff16815260200190815260200160002060006101000a81548160ff0219169083151502179055508173ffffffffffffffffffffffffffffffffffffffff168373ffffffffffffffffffffffffffffffffffffffff167f17307eab39ab6107e8899845ad3d59bd9653f200f220920489ca2b5937696c318360405161143391906125b5565b60405180910390a3505050565b61144b848484611077565b611457848484846118c7565b611496576040517f08c379a000000000000000000000000000000000000000000000000000000000815260040161148d906125f2565b60405180910390fd5b50505050565b60608383836040516020016114b39392919061251d565b60405160208183030381529060405290509392505050565b60606000825114156114ee57604051806020016040528060008152509050611665565b6000604051806060016040528060408152602001612be8604091399050600060036002855161151d91906128c1565b6115279190612917565b60046115339190612948565b9050600060208261154491906128c1565b67ffffffffffffffff811115611583577f4e487b7100000000000000000000000000000000000000000000000000000000600052604160045260246000fd5b6040519080825280601f01601f1916602001820160405280156115b55781602001600182028036833780820191505090505b509050818152600183018586518101602084015b81831015611624576003830192508251603f8160121c168501518253600182019150603f81600c1c168501518253600182019150603f8160061c168501518253600182019150603f81168501518253600182019150506115c9565b60038951066001811461163e576002811461164e57611659565b613d3d60f01b6002830352611659565b603d60f81b60018303525b50505050508093505050505b919050565b6060828260405160200161167f9291906124f9565b604051602081830303815290604052905092915050565b60016008826040516116a891906124e2565b908152602001604051809103902060006101000a81548160ff02191690831515021790555050565b600081600001549050919050565b6001816000016000828254019250508190555050565b600073ffffffffffffffffffffffffffffffffffffffff168273ffffffffffffffffffffffffffffffffffffffff161415611764576040517f08c379a000000000000000000000000000000000000000000000000000000000815260040161175b906126f2565b60405180910390fd5b61176d81610e6c565b156117ad576040517f08c379a00000000000000000000000000000000000000000000000000000000081526004016117a490612612565b60405180910390fd5b6117b9600083836118c2565b6001600360008473ffffffffffffffffffffffffffffffffffffffff1673ffffffffffffffffffffffffffffffffffffffff168152602001908152602001600020600082825461180991906128c1565b92505081905550816002600083815260200190815260200160002060006101000a81548173ffffffffffffffffffffffffffffffffffffffff021916908373ffffffffffffffffffffffffffffffffffffffff160217905550808273ffffffffffffffffffffffffffffffffffffffff16600073ffffffffffffffffffffffffffffffffffffffff167fddf252ad1be2c89b69c2b068fc378daa952ba7f163c4a11628f55a4df523b3ef60405160405180910390a45050565b505050565b60006118e88473ffffffffffffffffffffffffffffffffffffffff16611a5e565b15611a51578373ffffffffffffffffffffffffffffffffffffffff1663150b7a02611911610ed8565b8786866040518563ffffffff1660e01b81526004016119339493929190612569565b602060405180830381600087803b15801561194d57600080fd5b505af192505050801561197e57506040513d601f19601f8201168201806040525081019061197b9190611e1d565b60015b611a01573d80600081146119ae576040519150601f19603f3d011682016040523d82523d6000602084013e6119b3565b606091505b506000815114156119f9576040517f08c379a00000000000000000000000000000000000000000000000000000000081526004016119f0906125f2565b60405180910390fd5b805181602001fd5b63150b7a0260e01b7bffffffffffffffffffffffffffffffffffffffffffffffffffffffff1916817bffffffffffffffffffffffffffffffffffffffffffffffffffffffff191614915050611a56565b600190505b949350505050565b600080823b905060008111915050919050565b828054611a7d90612a8c565b90600052602060002090601f016020900481019282611a9f5760008555611ae6565b82601f10611ab857805160ff1916838001178555611ae6565b82800160010185558215611ae6579182015b82811115611ae5578251825591602001919060010190611aca565b5b509050611af39190611af7565b5090565b5b80821115611b10576000816000905550600101611af8565b5090565b6000611b27611b228461281e565b6127ed565b905082815260208101848484011115611b3f57600080fd5b611b4a848285612a4a565b509392505050565b6000611b65611b608461284e565b6127ed565b905082815260208101848484011115611b7d57600080fd5b611b88848285612a4a565b509392505050565b600081359050611b9f81612b8b565b92915050565b600081359050611bb481612ba2565b92915050565b600081359050611bc981612bb9565b92915050565b600081519050611bde81612bb9565b92915050565b600082601f830112611bf557600080fd5b8135611c05848260208601611b14565b91505092915050565b600082601f830112611c1f57600080fd5b8135611c2f848260208601611b52565b91505092915050565b600081359050611c4781612bd0565b92915050565b600060208284031215611c5f57600080fd5b6000611c6d84828501611b90565b91505092915050565b60008060408385031215611c8957600080fd5b6000611c9785828601611b90565b9250506020611ca885828601611b90565b9150509250929050565b600080600060608486031215611cc757600080fd5b6000611cd586828701611b90565b9350506020611ce686828701611b90565b9250506040611cf786828701611c38565b9150509250925092565b60008060008060808587031215611d1757600080fd5b6000611d2587828801611b90565b9450506020611d3687828801611b90565b9350506040611d4787828801611c38565b925050606085013567ffffffffffffffff811115611d6457600080fd5b611d7087828801611be4565b91505092959194509250565b60008060408385031215611d8f57600080fd5b6000611d9d85828601611b90565b9250506020611dae85828601611ba5565b9150509250929050565b60008060408385031215611dcb57600080fd5b6000611dd985828601611b90565b9250506020611dea85828601611c38565b9150509250929050565b600060208284031215611e0657600080fd5b6000611e1484828501611bba565b91505092915050565b600060208284031215611e2f57600080fd5b6000611e3d84828501611bcf565b91505092915050565b600060208284031215611e5857600080fd5b600082013567ffffffffffffffff811115611e7257600080fd5b611e7e84828501611c0e565b91505092915050565b600060208284031215611e9957600080fd5b6000611ea784828501611c38565b91505092915050565b611eb9816129d6565b82525050565b611ec8816129e8565b82525050565b6000611ed98261287e565b611ee38185612894565b9350611ef3818560208601612a59565b611efc81612b7a565b840191505092915050565b6000611f1282612889565b611f1c81856128a5565b9350611f2c818560208601612a59565b611f3581612b7a565b840191505092915050565b6000611f4b82612889565b611f5581856128b6565b9350611f65818560208601612a59565b80840191505092915050565b6000611f7e6032836128a5565b91507f4552433732313a207472616e7366657220746f206e6f6e20455243373231526560008301527f63656976657220696d706c656d656e74657200000000000000000000000000006020830152604082019050919050565b6000611fe4601c836128a5565b91507f4552433732313a20746f6b656e20616c7265616479206d696e746564000000006000830152602082019050919050565b60006120246024836128a5565b91507f4552433732313a207472616e7366657220746f20746865207a65726f2061646460008301527f72657373000000000000000000000000000000000000000000000000000000006020830152604082019050919050565b600061208a6019836128a5565b91507f4552433732313a20617070726f766520746f2063616c6c6572000000000000006000830152602082019050919050565b60006120ca602c836128a5565b91507f4552433732313a206f70657261746f7220717565727920666f72206e6f6e657860008301527f697374656e7420746f6b656e00000000000000000000000000000000000000006020830152604082019050919050565b60006121306038836128a5565b91507f4552433732313a20617070726f76652063616c6c6572206973206e6f74206f7760008301527f6e6572206e6f7220617070726f76656420666f7220616c6c00000000000000006020830152604082019050919050565b6000612196602a836128a5565b91507f4552433732313a2062616c616e636520717565727920666f7220746865207a6560008301527f726f2061646472657373000000000000000000000000000000000000000000006020830152604082019050919050565b60006121fc6029836128a5565b91507f4552433732313a206f776e657220717565727920666f72206e6f6e657869737460008301527f656e7420746f6b656e00000000000000000000000000000000000000000000006020830152604082019050919050565b60006122626020836128a5565b91507f4552433732313a206d696e7420746f20746865207a65726f20616464726573736000830152602082019050919050565b60006122a2602c836128a5565b91507f4552433732313a20617070726f76656420717565727920666f72206e6f6e657860008301527f697374656e7420746f6b656e00000000000000000000000000000000000000006020830152604082019050919050565b60006123086029836128a5565b91507f4552433732313a207472616e73666572206f6620746f6b656e2074686174206960008301527f73206e6f74206f776e00000000000000000000000000000000000000000000006020830152604082019050919050565b600061236e6021836128a5565b91507f4552433732313a20617070726f76616c20746f2063757272656e74206f776e6560008301527f72000000000000000000000000000000000000000000000000000000000000006020830152604082019050919050565b60006123d46031836128a5565b91507f4552433732313a207472616e736665722063616c6c6572206973206e6f74206f60008301527f776e6572206e6f7220617070726f7665640000000000000000000000000000006020830152604082019050919050565b600061243a6016836128a5565b91507f7061796d656e74206e6f742073756666696369656e74000000000000000000006000830152602082019050919050565b600061247a6023836128a5565b91507f7468697320737472696e672068617320616c7265616479206265656e206d696e60008301527f74656400000000000000000000000000000000000000000000000000000000006020830152604082019050919050565b6124dc81612a40565b82525050565b60006124ee8284611f40565b915081905092915050565b60006125058285611f40565b91506125118284611f40565b91508190509392505050565b60006125298286611f40565b91506125358285611f40565b91506125418284611f40565b9150819050949350505050565b60006020820190506125636000830184611eb0565b92915050565b600060808201905061257e6000830187611eb0565b61258b6020830186611eb0565b61259860408301856124d3565b81810360608301526125aa8184611ece565b905095945050505050565b60006020820190506125ca6000830184611ebf565b92915050565b600060208201905081810360008301526125ea8184611f07565b905092915050565b6000602082019050818103600083015261260b81611f71565b9050919050565b6000602082019050818103600083015261262b81611fd7565b9050919050565b6000602082019050818103600083015261264b81612017565b9050919050565b6000602082019050818103600083015261266b8161207d565b9050919050565b6000602082019050818103600083015261268b816120bd565b9050919050565b600060208201905081810360008301526126ab81612123565b9050919050565b600060208201905081810360008301526126cb81612189565b9050919050565b600060208201905081810360008301526126eb816121ef565b9050919050565b6000602082019050818103600083015261270b81612255565b9050919050565b6000602082019050818103600083015261272b81612295565b9050919050565b6000602082019050818103600083015261274b816122fb565b9050919050565b6000602082019050818103600083015261276b81612361565b9050919050565b6000602082019050818103600083015261278b816123c7565b9050919050565b600060208201905081810360008301526127ab8161242d565b9050919050565b600060208201905081810360008301526127cb8161246d565b9050919050565b60006020820190506127e760008301846124d3565b92915050565b6000604051905081810181811067ffffffffffffffff8211171561281457612813612b4b565b5b8060405250919050565b600067ffffffffffffffff82111561283957612838612b4b565b5b601f19601f8301169050602081019050919050565b600067ffffffffffffffff82111561286957612868612b4b565b5b601f19601f8301169050602081019050919050565b600081519050919050565b600081519050919050565b600082825260208201905092915050565b600082825260208201905092915050565b600081905092915050565b60006128cc82612a40565b91506128d783612a40565b9250827fffffffffffffffffffffffffffffffffffffffffffffffffffffffffffffffff0382111561290c5761290b612abe565b5b828201905092915050565b600061292282612a40565b915061292d83612a40565b92508261293d5761293c612aed565b5b828204905092915050565b600061295382612a40565b915061295e83612a40565b9250817fffffffffffffffffffffffffffffffffffffffffffffffffffffffffffffffff048311821515161561299757612996612abe565b5b828202905092915050565b60006129ad82612a40565b91506129b883612a40565b9250828210156129cb576129ca612abe565b5b828203905092915050565b60006129e182612a20565b9050919050565b60008115159050919050565b60007fffffffff0000000000000000000000000000000000000000000000000000000082169050919050565b600073ffffffffffffffffffffffffffffffffffffffff82169050919050565b6000819050919050565b82818337600083830152505050565b60005b83811015612a77578082015181840152602081019050612a5c565b83811115612a86576000848401525b50505050565b60006002820490506001821680612aa457607f821691505b60208210811415612ab857612ab7612b1c565b5b50919050565b7f4e487b7100000000000000000000000000000000000000000000000000000000600052601160045260246000fd5b7f4e487b7100000000000000000000000000000000000000000000000000000000600052601260045260246000fd5b7f4e487b7100000000000000000000000000000000000000000000000000000000600052602260045260246000fd5b7f4e487b7100000000000000000000000000000000000000000000000000000000600052604160045260246000fd5b6000601f19601f8301169050919050565b612b94816129d6565b8114612b9f57600080fd5b50565b612bab816129e8565b8114612bb657600080fd5b50565b612bc2816129f4565b8114612bcd57600080fd5b50565b612bd981612a40565b8114612be457600080fd5b5056fe4142434445464748494a4b4c4d4e4f505152535455565758595a6162636465666768696a6b6c6d6e6f707172737475767778797a303132333435363738392b2fa2646970667358221220162fb90b02aa740ea1633389801223ca43a1d42e356b772e2cae990f4bc6483164736f6c63430008000033",
  "linkReferences": {},
  "deployedLinkReferences": {}
}