{
  "_format": "hh-sol-artifact-1",
  "contractName": "ContractName",
  "sourceName": "contracts/inWriting.sol",
  "abi": [
    {
      "inputs": [],
      "stateMutability": "nonpayable",
      "type": "constructor"
    },
    {
      "anonymous": false,
      "inputs": [
        {
          "indexed": false,
          "internalType": "uint256",
          "name": "tokenId",
          "type": "uint256"
        },
        {
          "indexed": false,
          "internalType": "address",
          "name": "addr",
          "type": "address"
        }
      ],
      "name": "Appended",
      "type": "event"
    },
    {
      "anonymous": false,
      "inputs": [
        {
          "indexed": true,
          "internalType": "address",
          "name": "owner",
          "type": "address"
        },
        {
          "indexed": true,
          "internalType": "address",
          "name": "approved",
          "type": "address"
        },
        {
          "indexed": true,
          "internalType": "uint256",
          "name": "tokenId",
          "type": "uint256"
        }
      ],
      "name": "Approval",
      "type": "event"
    },
    {
      "anonymous": false,
      "inputs": [
        {
          "indexed": true,
          "internalType": "address",
          "name": "owner",
          "type": "address"
        },
        {
          "indexed": true,
          "internalType": "address",
          "name": "operator",
          "type": "address"
        },
        {
          "indexed": false,
          "internalType": "bool",
          "name": "approved",
          "type": "bool"
        }
      ],
      "name": "ApprovalForAll",
      "type": "event"
    },
    {
      "anonymous": false,
      "inputs": [
        {
          "indexed": false,
          "internalType": "uint256",
          "name": "tokenId",
          "type": "uint256"
        },
        {
          "indexed": false,
          "internalType": "uint256",
          "name": "price",
          "type": "uint256"
        }
      ],
      "name": "Bought",
      "type": "event"
    },
    {
      "anonymous": false,
      "inputs": [
        {
          "indexed": false,
          "internalType": "uint256",
          "name": "tokenId",
          "type": "uint256"
        },
        {
          "indexed": false,
          "internalType": "uint256",
          "name": "price",
          "type": "uint256"
        }
      ],
      "name": "Listed",
      "type": "event"
    },
    {
      "anonymous": false,
      "inputs": [
        {
          "indexed": true,
          "internalType": "address",
          "name": "previousOwner",
          "type": "address"
        },
        {
          "indexed": true,
          "internalType": "address",
          "name": "newOwner",
          "type": "address"
        }
      ],
      "name": "OwnershipTransferred",
      "type": "event"
    },
    {
      "anonymous": false,
      "inputs": [
        {
          "indexed": true,
          "internalType": "address",
          "name": "from",
          "type": "address"
        },
        {
          "indexed": true,
          "internalType": "address",
          "name": "to",
          "type": "address"
        },
        {
          "indexed": true,
          "internalType": "uint256",
          "name": "tokenId",
          "type": "uint256"
        }
      ],
      "name": "Transfer",
      "type": "event"
    },
    {
      "inputs": [
        {
          "internalType": "uint256",
          "name": "tokenId",
          "type": "uint256"
        },
        {
          "internalType": "string",
          "name": "str",
          "type": "string"
        }
      ],
      "name": "append_to_NFT",
      "outputs": [
        {
          "internalType": "bool",
          "name": "",
          "type": "bool"
        }
      ],
      "stateMutability": "nonpayable",
      "type": "function"
    },
    {
      "inputs": [
        {
          "internalType": "address",
          "name": "to",
          "type": "address"
        },
        {
          "internalType": "uint256",
          "name": "tokenId",
          "type": "uint256"
        }
      ],
      "name": "approve",
      "outputs": [],
      "stateMutability": "nonpayable",
      "type": "function"
    },
    {
      "inputs": [
        {
          "internalType": "address",
          "name": "owner",
          "type": "address"
        }
      ],
      "name": "balanceOf",
      "outputs": [
        {
          "internalType": "uint256",
          "name": "",
          "type": "uint256"
        }
      ],
      "stateMutability": "view",
      "type": "function"
    },
    {
      "inputs": [
        {
          "internalType": "uint256",
          "name": "tokenId",
          "type": "uint256"
        }
      ],
      "name": "buy",
      "outputs": [
        {
          "internalType": "bool",
          "name": "",
          "type": "bool"
        }
      ],
      "stateMutability": "payable",
      "type": "function"
    },
    {
      "inputs": [
        {
          "internalType": "uint256",
          "name": "newCost",
          "type": "uint256"
        }
      ],
      "name": "change_cost",
      "outputs": [],
      "stateMutability": "nonpayable",
      "type": "function"
    },
    {
      "inputs": [
        {
          "internalType": "uint256",
          "name": "newFee",
          "type": "uint256"
        }
      ],
      "name": "change_fee",
      "outputs": [],
      "stateMutability": "nonpayable",
      "type": "function"
    },
    {
      "inputs": [
        {
          "internalType": "string",
          "name": "str",
          "type": "string"
        }
      ],
      "name": "check_if_used",
      "outputs": [
        {
          "internalType": "bool",
          "name": "",
          "type": "bool"
        }
      ],
      "stateMutability": "view",
      "type": "function"
    },
    {
      "inputs": [
        {
          "internalType": "uint256",
          "name": "tokenId",
          "type": "uint256"
        }
      ],
      "name": "delist_for_sale",
      "outputs": [
        {
          "internalType": "bool",
          "name": "",
          "type": "bool"
        }
      ],
      "stateMutability": "nonpayable",
      "type": "function"
    },
    {
      "inputs": [
        {
          "internalType": "uint256",
          "name": "tokenId",
          "type": "uint256"
        }
      ],
      "name": "getApproved",
      "outputs": [
        {
          "internalType": "address",
          "name": "",
          "type": "address"
        }
      ],
      "stateMutability": "view",
      "type": "function"
    },
    {
      "inputs": [],
      "name": "get_cost",
      "outputs": [
        {
          "internalType": "uint256",
          "name": "",
          "type": "uint256"
        }
      ],
      "stateMutability": "view",
      "type": "function"
    },
    {
      "inputs": [
        {
          "internalType": "uint256",
          "name": "tokenId",
          "type": "uint256"
        }
      ],
      "name": "get_image",
      "outputs": [
        {
          "internalType": "string",
          "name": "",
          "type": "string"
        }
      ],
      "stateMutability": "view",
      "type": "function"
    },
    {
      "inputs": [
        {
          "internalType": "uint256",
          "name": "tokenId",
          "type": "uint256"
        }
      ],
      "name": "get_price",
      "outputs": [
        {
          "internalType": "uint256",
          "name": "",
          "type": "uint256"
        }
      ],
      "stateMutability": "view",
      "type": "function"
    },
    {
      "inputs": [
        {
          "internalType": "uint256",
          "name": "tokenId",
          "type": "uint256"
        }
      ],
      "name": "get_string",
      "outputs": [
        {
          "internalType": "string",
          "name": "",
          "type": "string"
        }
      ],
      "stateMutability": "view",
      "type": "function"
    },
    {
      "inputs": [
        {
          "internalType": "address",
          "name": "owner",
          "type": "address"
        },
        {
          "internalType": "address",
          "name": "operator",
          "type": "address"
        }
      ],
      "name": "isApprovedForAll",
      "outputs": [
        {
          "internalType": "bool",
          "name": "",
          "type": "bool"
        }
      ],
      "stateMutability": "view",
      "type": "function"
    },
    {
      "inputs": [
        {
          "internalType": "uint256",
          "name": "tokenId",
          "type": "uint256"
        },
        {
          "internalType": "uint256",
          "name": "price",
          "type": "uint256"
        }
      ],
      "name": "list_for_sale",
      "outputs": [
        {
          "internalType": "bool",
          "name": "",
          "type": "bool"
        }
      ],
      "stateMutability": "nonpayable",
      "type": "function"
    },
    {
      "inputs": [
        {
          "internalType": "uint256",
          "name": "tokenId",
          "type": "uint256"
        }
      ],
      "name": "lock_NFT",
      "outputs": [
        {
          "internalType": "bool",
          "name": "",
          "type": "bool"
        }
      ],
      "stateMutability": "nonpayable",
      "type": "function"
    },
    {
      "inputs": [
        {
          "internalType": "string",
          "name": "str",
          "type": "string"
        }
      ],
      "name": "mint_NFT",
      "outputs": [
        {
          "internalType": "uint256",
          "name": "",
          "type": "uint256"
        }
      ],
      "stateMutability": "payable",
      "type": "function"
    },
    {
      "inputs": [
        {
          "internalType": "string",
          "name": "str",
          "type": "string"
        },
        {
          "internalType": "uint256",
          "name": "price",
          "type": "uint256"
        }
      ],
      "name": "mint_and_list_NFT",
      "outputs": [
        {
          "internalType": "uint256",
          "name": "",
          "type": "uint256"
        }
      ],
      "stateMutability": "payable",
      "type": "function"
    },
    {
      "inputs": [
        {
          "internalType": "string",
          "name": "str",
          "type": "string"
        },
        {
          "internalType": "uint256",
          "name": "price",
          "type": "uint256"
        }
      ],
      "name": "mint_and_list_unlocked_NFT",
      "outputs": [
        {
          "internalType": "uint256",
          "name": "",
          "type": "uint256"
        }
      ],
      "stateMutability": "payable",
      "type": "function"
    },
    {
      "inputs": [
        {
          "internalType": "string",
          "name": "str",
          "type": "string"
        }
      ],
      "name": "mint_unlocked_NFT",
      "outputs": [
        {
          "internalType": "uint256",
          "name": "",
          "type": "uint256"
        }
      ],
      "stateMutability": "payable",
      "type": "function"
    },
    {
      "inputs": [],
      "name": "name",
      "outputs": [
        {
          "internalType": "string",
          "name": "",
          "type": "string"
        }
      ],
      "stateMutability": "view",
      "type": "function"
    },
    {
      "inputs": [],
      "name": "owner",
      "outputs": [
        {
          "internalType": "address",
          "name": "",
          "type": "address"
        }
      ],
      "stateMutability": "view",
      "type": "function"
    },
    {
      "inputs": [
        {
          "internalType": "uint256",
          "name": "tokenId",
          "type": "uint256"
        }
      ],
      "name": "ownerOf",
      "outputs": [
        {
          "internalType": "address",
          "name": "",
          "type": "address"
        }
      ],
      "stateMutability": "view",
      "type": "function"
    },
    {
      "inputs": [],
      "name": "renounceOwnership",
      "outputs": [],
      "stateMutability": "nonpayable",
      "type": "function"
    },
    {
      "inputs": [
        {
          "internalType": "address",
          "name": "from",
          "type": "address"
        },
        {
          "internalType": "address",
          "name": "to",
          "type": "address"
        },
        {
          "internalType": "uint256",
          "name": "tokenId",
          "type": "uint256"
        }
      ],
      "name": "safeTransferFrom",
      "outputs": [],
      "stateMutability": "nonpayable",
      "type": "function"
    },
    {
      "inputs": [
        {
          "internalType": "address",
          "name": "from",
          "type": "address"
        },
        {
          "internalType": "address",
          "name": "to",
          "type": "address"
        },
        {
          "internalType": "uint256",
          "name": "tokenId",
          "type": "uint256"
        },
        {
          "internalType": "bytes",
          "name": "_data",
          "type": "bytes"
        }
      ],
      "name": "safeTransferFrom",
      "outputs": [],
      "stateMutability": "nonpayable",
      "type": "function"
    },
    {
      "inputs": [
        {
          "internalType": "address",
          "name": "operator",
          "type": "address"
        },
        {
          "internalType": "bool",
          "name": "approved",
          "type": "bool"
        }
      ],
      "name": "setApprovalForAll",
      "outputs": [],
      "stateMutability": "nonpayable",
      "type": "function"
    },
    {
      "inputs": [
        {
          "internalType": "bytes4",
          "name": "interfaceId",
          "type": "bytes4"
        }
      ],
      "name": "supportsInterface",
      "outputs": [
        {
          "internalType": "bool",
          "name": "",
          "type": "bool"
        }
      ],
      "stateMutability": "view",
      "type": "function"
    },
    {
      "inputs": [],
      "name": "symbol",
      "outputs": [
        {
          "internalType": "string",
          "name": "",
          "type": "string"
        }
      ],
      "stateMutability": "view",
      "type": "function"
    },
    {
      "inputs": [
        {
          "internalType": "uint256",
          "name": "tokenId",
          "type": "uint256"
        }
      ],
      "name": "tokenURI",
      "outputs": [
        {
          "internalType": "string",
          "name": "",
          "type": "string"
        }
      ],
      "stateMutability": "view",
      "type": "function"
    },
    {
      "inputs": [
        {
          "internalType": "address",
          "name": "from",
          "type": "address"
        },
        {
          "internalType": "address",
          "name": "to",
          "type": "address"
        },
        {
          "internalType": "uint256",
          "name": "tokenId",
          "type": "uint256"
        }
      ],
      "name": "transferFrom",
      "outputs": [],
      "stateMutability": "nonpayable",
      "type": "function"
    },
    {
      "inputs": [
        {
          "internalType": "address",
          "name": "newOwner",
          "type": "address"
        }
      ],
      "name": "transferOwnership",
      "outputs": [],
      "stateMutability": "nonpayable",
      "type": "function"
    },
    {
      "inputs": [
        {
          "internalType": "uint256",
          "name": "amt",
          "type": "uint256"
        }
      ],
      "name": "withdraw",
      "outputs": [],
      "stateMutability": "nonpayable",
      "type": "function"
    }
  ],
  "bytecode": "0x608060405260006008556608e1bc9bf04000600d556040518060400160405280600c81526020017f3c73766720786d6c6e733d270000000000000000000000000000000000000000815250600e908051906020019062000061929190620003d0565b506040518060400160405280601a81526020017f687474703a2f2f7777772e77332e6f72672f323030302f737667000000000000815250600f9080519060200190620000af929190620003d0565b506040518060600160405280602a815260200162004daf602a913960109080519060200190620000e1929190620003d0565b506040518060400160405280601481526020017f3c7374796c653e40696d706f72742075726c2827000000000000000000000000815250601190805190602001906200012f929190620003d0565b5060405180606001604052806023815260200162004d8c602391396012908051906020019062000161929190620003d0565b506040518060400160405280600b81526020017f27293b3c2f7374796c653e00000000000000000000000000000000000000000081525060139080519060200190620001af929190620003d0565b506040518060a001604052806071815260200162004d1b6071913960149080519060200190620001e1929190620003d0565b506040518060400160405280600781526020017f3c2f746578743e00000000000000000000000000000000000000000000000000815250601590805190602001906200022f929190620003d0565b503480156200023d57600080fd5b506040518060400160405280600981526020017f546f6b656e4e616d6500000000000000000000000000000000000000000000008152506040518060400160405280600481526020017f53594d4200000000000000000000000000000000000000000000000000000000815250620002ca620002be6200030460201b60201c565b6200030c60201b60201c565b8160019080519060200190620002e2929190620003d0565b508060029080519060200190620002fb929190620003d0565b505050620004e5565b600033905090565b60008060009054906101000a900473ffffffffffffffffffffffffffffffffffffffff169050816000806101000a81548173ffffffffffffffffffffffffffffffffffffffff021916908373ffffffffffffffffffffffffffffffffffffffff1602179055508173ffffffffffffffffffffffffffffffffffffffff168173ffffffffffffffffffffffffffffffffffffffff167f8be0079c531659141344cd1fd0a4f28419497f9722a3daafe3b4186f6b6457e060405160405180910390a35050565b828054620003de9062000480565b90600052602060002090601f0160209004810192826200040257600085556200044e565b82601f106200041d57805160ff19168380011785556200044e565b828001600101855582156200044e579182015b828111156200044d57825182559160200191906001019062000430565b5b5090506200045d919062000461565b5090565b5b808211156200047c57600081600090555060010162000462565b5090565b600060028204905060018216806200049957607f821691505b60208210811415620004b057620004af620004b6565b5b50919050565b7f4e487b7100000000000000000000000000000000000000000000000000000000600052602260045260246000fd5b61482680620004f56000396000f3fe6080604052600436106101ee5760003560e01c8063715018a61161010d578063b88d4fde116100a0578063d96a094a1161006f578063d96a094a1461076f578063e985e9c51461079f578063f1d14903146107dc578063f2fde38b14610819578063f4d8a95214610842576101ee565b8063b88d4fde1461069c578063c87b56dd146106c5578063c99457d114610702578063d93580ff14610732576101ee565b80638da5cb5b116100dc5780638da5cb5b146105e057806391126b0a1461060b57806395d89b4114610648578063a22cb46514610673576101ee565b8063715018a61461051f57806372b805c214610536578063834ca100146105735780638d2e41e5146105b0576101ee565b80632e1a7d4d116101855780636352211e116101545780636352211e1461044c5780636ceba55e146104895780636eb02583146104b257806370a08231146104e2576101ee565b80632e1a7d4d1461039457806342842e0e146103bd5780634c24c439146103e657806351d7817714610423576101ee565b8063095ea7b3116101c1578063095ea7b3146102d55780630eb4d8cb146102fe57806323b872dd1461032e5780632ab8a29814610357576101ee565b806301b71aec146101f357806301ffc9a71461023057806306fdde031461026d578063081812fc14610298575b600080fd5b3480156101ff57600080fd5b5061021a60048036038101906102159190613132565b61086d565b6040516102279190613f3c565b60405180910390f35b34801561023c57600080fd5b5061025760048036038101906102529190612fce565b61098e565b6040516102649190613f3c565b60405180910390f35b34801561027957600080fd5b50610282610a70565b60405161028f9190613f57565b60405180910390f35b3480156102a457600080fd5b506102bf60048036038101906102ba91906130b5565b610b02565b6040516102cc9190613ed5565b60405180910390f35b3480156102e157600080fd5b506102fc60048036038101906102f79190612f92565b610b87565b005b61031860048036038101906103139190613061565b610c9f565b60405161032591906142f9565b60405180910390f35b34801561033a57600080fd5b5061035560048036038101906103509190612e8c565b610cc2565b005b34801561036357600080fd5b5061037e600480360381019061037991906130b5565b610d22565b60405161038b9190613f3c565b60405180910390f35b3480156103a057600080fd5b506103bb60048036038101906103b691906130b5565b610e4a565b005b3480156103c957600080fd5b506103e460048036038101906103df9190612e8c565b610f24565b005b3480156103f257600080fd5b5061040d60048036038101906104089190613020565b610f44565b60405161041a9190613f3c565b60405180910390f35b34801561042f57600080fd5b5061044a600480360381019061044591906130b5565b610f79565b005b34801561045857600080fd5b50610473600480360381019061046e91906130b5565b610fff565b6040516104809190613ed5565b60405180910390f35b34801561049557600080fd5b506104b060048036038101906104ab91906130b5565b6110b1565b005b6104cc60048036038101906104c79190613061565b611137565b6040516104d991906142f9565b60405180910390f35b3480156104ee57600080fd5b5061050960048036038101906105049190612e27565b61115a565b60405161051691906142f9565b60405180910390f35b34801561052b57600080fd5b50610534611212565b005b34801561054257600080fd5b5061055d600480360381019061055891906130b5565b61129a565b60405161056a9190613f57565b60405180910390f35b34801561057f57600080fd5b5061059a600480360381019061059591906130b5565b611308565b6040516105a79190613f57565b60405180910390f35b6105ca60048036038101906105c59190613020565b6113f5565b6040516105d791906142f9565b60405180910390f35b3480156105ec57600080fd5b506105f56115ed565b6040516106029190613ed5565b60405180910390f35b34801561061757600080fd5b50610632600480360381019061062d91906130de565b611616565b60405161063f9190613f3c565b60405180910390f35b34801561065457600080fd5b5061065d611894565b60405161066a9190613f57565b60405180910390f35b34801561067f57600080fd5b5061069a60048036038101906106959190612f56565b611926565b005b3480156106a857600080fd5b506106c360048036038101906106be9190612edb565b61193c565b005b3480156106d157600080fd5b506106ec60048036038101906106e791906130b5565b61199e565b6040516106f99190613f57565b60405180910390f35b61071c60048036038101906107179190613020565b611a43565b60405161072991906142f9565b60405180910390f35b34801561073e57600080fd5b50610759600480360381019061075491906130b5565b611a86565b60405161076691906142f9565b60405180910390f35b610789600480360381019061078491906130b5565b611b06565b6040516107969190613f3c565b60405180910390f35b3480156107ab57600080fd5b506107c660048036038101906107c19190612e50565b611cf4565b6040516107d39190613f3c565b60405180910390f35b3480156107e857600080fd5b5061080360048036038101906107fe91906130b5565b611d88565b6040516108109190613f3c565b60405180910390f35b34801561082557600080fd5b50610840600480360381019061083b9190612e27565b611dff565b005b34801561084e57600080fd5b50610857611ef7565b60405161086491906142f9565b60405180910390f35b6000808214156108b2576040517f08c379a00000000000000000000000000000000000000000000000000000000081526004016108a990614279565b60405180910390fd5b6108bb83610fff565b73ffffffffffffffffffffffffffffffffffffffff163373ffffffffffffffffffffffffffffffffffffffff1614610928576040517f08c379a000000000000000000000000000000000000000000000000000000000815260040161091f90614299565b60405180910390fd5b610933600084610b87565b8160076000858152602001908152602001600020819055507f1ea45e30b31292f9d7c5d37d275b2feca555f13f47dce0fdea2f47e8852ecd78838360405161097c929190614366565b60405180910390a16001905092915050565b60007f80ac58cd000000000000000000000000000000000000000000000000000000007bffffffffffffffffffffffffffffffffffffffffffffffffffffffff1916827bffffffffffffffffffffffffffffffffffffffffffffffffffffffff19161480610a5957507f5b5e139f000000000000000000000000000000000000000000000000000000007bffffffffffffffffffffffffffffffffffffffffffffffffffffffff1916827bffffffffffffffffffffffffffffffffffffffffffffffffffffffff1916145b80610a695750610a6882611f01565b5b9050919050565b606060018054610a7f90614655565b80601f0160208091040260200160405190810160405280929190818152602001828054610aab90614655565b8015610af85780601f10610acd57610100808354040283529160200191610af8565b820191906000526020600020905b815481529060010190602001808311610adb57829003601f168201915b5050505050905090565b6000610b0d82611f6b565b610b4c576040517f08c379a0000000000000000000000000000000000000000000000000000000008152600401610b4390614119565b60405180910390fd5b6005600083815260200190815260200160002060009054906101000a900473ffffffffffffffffffffffffffffffffffffffff169050919050565b6000610b9282610fff565b90508073ffffffffffffffffffffffffffffffffffffffff168373ffffffffffffffffffffffffffffffffffffffff161415610c03576040517f08c379a0000000000000000000000000000000000000000000000000000000008152600401610bfa906141b9565b60405180910390fd5b8073ffffffffffffffffffffffffffffffffffffffff16610c22611fd7565b73ffffffffffffffffffffffffffffffffffffffff161480610c515750610c5081610c4b611fd7565b611cf4565b5b610c90576040517f08c379a0000000000000000000000000000000000000000000000000000000008152600401610c8790614099565b60405180910390fd5b610c9a8383611fdf565b505050565b600080610cab846113f5565b9050610cb7818461086d565b508091505092915050565b610cd3610ccd611fd7565b826120ee565b610d12576040517f08c379a0000000000000000000000000000000000000000000000000000000008152600401610d0990614219565b60405180910390fd5b610d1d8383836121cc565b505050565b60008060076000848152602001908152602001600020541415610d7a576040517f08c379a0000000000000000000000000000000000000000000000000000000008152600401610d7190614179565b60405180910390fd5b610d8382610fff565b73ffffffffffffffffffffffffffffffffffffffff163373ffffffffffffffffffffffffffffffffffffffff1614610df0576040517f08c379a0000000000000000000000000000000000000000000000000000000008152600401610de790613f79565b60405180910390fd5b60076000838152602001908152602001600020600090557f3ccb2ab6980b218b1dd4974b07365cd90a191e170c611da46262fecc208bd661826000604051610e3992919061433d565b60405180910390a160019050919050565b610e52611fd7565b73ffffffffffffffffffffffffffffffffffffffff16610e706115ed565b73ffffffffffffffffffffffffffffffffffffffff1614610ec6576040517f08c379a0000000000000000000000000000000000000000000000000000000008152600401610ebd90614139565b60405180910390fd5b47811115610ed357600080fd5b610edb6115ed565b73ffffffffffffffffffffffffffffffffffffffff166108fc829081150290604051600060405180830381858888f19350505050158015610f20573d6000803e3d6000fd5b5050565b610f3f8383836040518060200160405280600081525061193c565b505050565b6000600a82604051610f569190613e04565b908152602001604051809103902060009054906101000a900460ff169050919050565b610f81611fd7565b73ffffffffffffffffffffffffffffffffffffffff16610f9f6115ed565b73ffffffffffffffffffffffffffffffffffffffff1614610ff5576040517f08c379a0000000000000000000000000000000000000000000000000000000008152600401610fec90614139565b60405180910390fd5b80600d8190555050565b6000806003600084815260200190815260200160002060009054906101000a900473ffffffffffffffffffffffffffffffffffffffff169050600073ffffffffffffffffffffffffffffffffffffffff168173ffffffffffffffffffffffffffffffffffffffff1614156110a8576040517f08c379a000000000000000000000000000000000000000000000000000000000815260040161109f906140d9565b60405180910390fd5b80915050919050565b6110b9611fd7565b73ffffffffffffffffffffffffffffffffffffffff166110d76115ed565b73ffffffffffffffffffffffffffffffffffffffff161461112d576040517f08c379a000000000000000000000000000000000000000000000000000000000815260040161112490614139565b60405180910390fd5b8060088190555050565b60008061114384611a43565b905061114f818461086d565b508091505092915050565b60008073ffffffffffffffffffffffffffffffffffffffff168273ffffffffffffffffffffffffffffffffffffffff1614156111cb576040517f08c379a00000000000000000000000000000000000000000000000000000000081526004016111c2906140b9565b60405180910390fd5b600460008373ffffffffffffffffffffffffffffffffffffffff1673ffffffffffffffffffffffffffffffffffffffff168152602001908152602001600020549050919050565b61121a611fd7565b73ffffffffffffffffffffffffffffffffffffffff166112386115ed565b73ffffffffffffffffffffffffffffffffffffffff161461128e576040517f08c379a000000000000000000000000000000000000000000000000000000000815260040161128590614139565b60405180910390fd5b611298600061247e565b565b606060006040518060400160405280601d81526020017f646174613a6170706c69636174696f6e2f6a736f6e3b6261736536342c0000008152509050806112e084611308565b6040516020016112f1929190613e3f565b604051602081830303815290604052915050919050565b606061131382611f6b565b611352576040517f08c379a0000000000000000000000000000000000000000000000000000000008152600401611349906141d9565b60405180910390fd5b600b6000838152602001908152602001600020805461137090614655565b80601f016020809104026020016040519081016040528092919081815260200182805461139c90614655565b80156113e95780601f106113be576101008083540402835291602001916113e9565b820191906000526020600020905b8154815290600101906020018083116113cc57829003601f168201915b50505050509050919050565b6000600d5434101561143c576040517f08c379a000000000000000000000000000000000000000000000000000000000815260040161143390614239565b60405180910390fd5b6000825111611480576040517f08c379a0000000000000000000000000000000000000000000000000000000008152600401611477906141f9565b60405180910390fd5b600a826040516114909190613e04565b908152602001604051809103902060009054906101000a900460ff16156114ec576040517f08c379a00000000000000000000000000000000000000000000000000000000081526004016114e3906142b9565b60405180910390fd5b60006114f86009612542565b90506115046009612550565b82600b6000838152602001908152602001600020908051906020019061152b929190612c4b565b506000600b600083815260200190815260200160002090506001600a826040516115559190613e6e565b908152602001604051809103902060006101000a81548160ff0219169083151502179055506115843383612566565b600d543411156115e3573373ffffffffffffffffffffffffffffffffffffffff166108fc600d54346115b69190614559565b9081150290604051600060405180830381858888f193505050501580156115e1573d6000803e3d6000fd5b505b8192505050919050565b60008060009054906101000a900473ffffffffffffffffffffffffffffffffffffffff16905090565b6000600c600084815260200190815260200160002060009054906101000a900460ff16611678576040517f08c379a000000000000000000000000000000000000000000000000000000000815260040161166f90614019565b60405180910390fd5b6000600b6000858152602001908152602001600020805461169890614655565b80601f01602080910402602001604051908101604052809291908181526020018280546116c490614655565b80156117115780601f106116e657610100808354040283529160200191611711565b820191906000526020600020905b8154815290600101906020018083116116f457829003601f168201915b505050505090506000818460405160200161172d929190613e1b565b6040516020818303038152906040529050600a8160405161174e9190613e04565b908152602001604051809103902060009054906101000a900460ff16156117aa576040517f08c379a00000000000000000000000000000000000000000000000000000000081526004016117a1906142b9565b60405180910390fd5b80600b600087815260200190815260200160002090805190602001906117d1929190612c4b565b506000600b600087815260200190815260200160002090506001600a826040516117fb9190613e6e565b908152602001604051809103902060006101000a81548160ff021916908315150217905550600a836040516118309190613e04565b908152602001604051809103902060006101000a81549060ff02191690557fb77ac2cf2bae3b1d3a17f92a68edca0b214181c2b72dbc133de7491fa2b55751863360405161187f929190614314565b60405180910390a16001935050505092915050565b6060600280546118a390614655565b80601f01602080910402602001604051908101604052809291908181526020018280546118cf90614655565b801561191c5780601f106118f15761010080835404028352916020019161191c565b820191906000526020600020905b8154815290600101906020018083116118ff57829003601f168201915b5050505050905090565b611938611931611fd7565b8383612734565b5050565b61194d611947611fd7565b836120ee565b61198c576040517f08c379a000000000000000000000000000000000000000000000000000000000815260040161198390614219565b60405180910390fd5b611998848484846128a1565b50505050565b606060006040518060400160405280601d81526020017f646174613a6170706c69636174696f6e2f6a736f6e3b6261736536342c000000815250905060006119e584611308565b6119ee8561129a565b6040516020016119ff929190613e85565b604051602081830303815290604052905081611a1a826128fd565b604051602001611a2b929190613e1b565b60405160208183030381529060405292505050919050565b600080611a4f836113f5565b90506001600c600083815260200190815260200160002060006101000a81548160ff02191690831515021790555080915050919050565b60008060076000848152602001908152602001600020541415611ade576040517f08c379a0000000000000000000000000000000000000000000000000000000008152600401611ad590614179565b60405180910390fd5b6008546007600084815260200190815260200160002054611aff9190614478565b9050919050565b60008060076000848152602001908152602001600020541415611b5e576040517f08c379a0000000000000000000000000000000000000000000000000000000008152600401611b5590614179565b60405180910390fd5b600060085434611b6e9190614559565b90506007600084815260200190815260200160002054811015611bc6576040517f08c379a0000000000000000000000000000000000000000000000000000000008152600401611bbd90613ff9565b60405180910390fd5b6000611bd184610fff565b90506000600760008681526020019081526020016000205490506007600086815260200190815260200160002060009055611c0d8233876121cc565b8173ffffffffffffffffffffffffffffffffffffffff166108fc829081150290604051600060405180830381858888f19350505050158015611c53573d6000803e3d6000fd5b5080341115611caf573373ffffffffffffffffffffffffffffffffffffffff166108fc8285611c829190614559565b9081150290604051600060405180830381858888f19350505050158015611cad573d6000803e3d6000fd5b505b7f3ccb2ab6980b218b1dd4974b07365cd90a191e170c611da46262fecc208bd6618582604051611ce0929190614366565b60405180910390a160019350505050919050565b6000600660008473ffffffffffffffffffffffffffffffffffffffff1673ffffffffffffffffffffffffffffffffffffffff16815260200190815260200160002060008373ffffffffffffffffffffffffffffffffffffffff1673ffffffffffffffffffffffffffffffffffffffff16815260200190815260200160002060009054906101000a900460ff16905092915050565b6000611d9433836120ee565b611dd3576040517f08c379a0000000000000000000000000000000000000000000000000000000008152600401611dca906142d9565b60405180910390fd5b600c600083815260200190815260200160002060006101000a81549060ff021916905560019050919050565b611e07611fd7565b73ffffffffffffffffffffffffffffffffffffffff16611e256115ed565b73ffffffffffffffffffffffffffffffffffffffff1614611e7b576040517f08c379a0000000000000000000000000000000000000000000000000000000008152600401611e7290614139565b60405180910390fd5b600073ffffffffffffffffffffffffffffffffffffffff168173ffffffffffffffffffffffffffffffffffffffff161415611eeb576040517f08c379a0000000000000000000000000000000000000000000000000000000008152600401611ee290613fb9565b60405180910390fd5b611ef48161247e565b50565b6000600d54905090565b60007f01ffc9a7000000000000000000000000000000000000000000000000000000007bffffffffffffffffffffffffffffffffffffffffffffffffffffffff1916827bffffffffffffffffffffffffffffffffffffffffffffffffffffffff1916149050919050565b60008073ffffffffffffffffffffffffffffffffffffffff166003600084815260200190815260200160002060009054906101000a900473ffffffffffffffffffffffffffffffffffffffff1673ffffffffffffffffffffffffffffffffffffffff1614159050919050565b600033905090565b6000600760008381526020019081526020016000205414612035576040517f08c379a000000000000000000000000000000000000000000000000000000000815260040161202c90614199565b60405180910390fd5b816005600083815260200190815260200160002060006101000a81548173ffffffffffffffffffffffffffffffffffffffff021916908373ffffffffffffffffffffffffffffffffffffffff160217905550808273ffffffffffffffffffffffffffffffffffffffff166120a883610fff565b73ffffffffffffffffffffffffffffffffffffffff167f8c5be1e5ebec7d5bd14f71427d1e84f3dd0314c0f7b2291e5b200ac8c7c3b92560405160405180910390a45050565b60006120f982611f6b565b612138576040517f08c379a000000000000000000000000000000000000000000000000000000000815260040161212f90614079565b60405180910390fd5b600061214383610fff565b90508073ffffffffffffffffffffffffffffffffffffffff168473ffffffffffffffffffffffffffffffffffffffff1614806121b257508373ffffffffffffffffffffffffffffffffffffffff1661219a84610b02565b73ffffffffffffffffffffffffffffffffffffffff16145b806121c357506121c28185611cf4565b5b91505092915050565b8273ffffffffffffffffffffffffffffffffffffffff166121ec82610fff565b73ffffffffffffffffffffffffffffffffffffffff1614612242576040517f08c379a000000000000000000000000000000000000000000000000000000000815260040161223990614159565b60405180910390fd5b600073ffffffffffffffffffffffffffffffffffffffff168273ffffffffffffffffffffffffffffffffffffffff1614156122b2576040517f08c379a00000000000000000000000000000000000000000000000000000000081526004016122a990614039565b60405180910390fd5b6000600760008381526020019081526020016000205414612308576040517f08c379a00000000000000000000000000000000000000000000000000000000081526004016122ff90614259565b60405180910390fd5b612313838383612a9c565b61231e600082611fdf565b6001600460008573ffffffffffffffffffffffffffffffffffffffff1673ffffffffffffffffffffffffffffffffffffffff168152602001908152602001600020600082825461236e9190614559565b925050819055506001600460008473ffffffffffffffffffffffffffffffffffffffff1673ffffffffffffffffffffffffffffffffffffffff16815260200190815260200160002060008282546123c59190614478565b92505081905550816003600083815260200190815260200160002060006101000a81548173ffffffffffffffffffffffffffffffffffffffff021916908373ffffffffffffffffffffffffffffffffffffffff160217905550808273ffffffffffffffffffffffffffffffffffffffff168473ffffffffffffffffffffffffffffffffffffffff167fddf252ad1be2c89b69c2b068fc378daa952ba7f163c4a11628f55a4df523b3ef60405160405180910390a4505050565b60008060009054906101000a900473ffffffffffffffffffffffffffffffffffffffff169050816000806101000a81548173ffffffffffffffffffffffffffffffffffffffff021916908373ffffffffffffffffffffffffffffffffffffffff1602179055508173ffffffffffffffffffffffffffffffffffffffff168173ffffffffffffffffffffffffffffffffffffffff167f8be0079c531659141344cd1fd0a4f28419497f9722a3daafe3b4186f6b6457e060405160405180910390a35050565b600081600001549050919050565b6001816000016000828254019250508190555050565b600073ffffffffffffffffffffffffffffffffffffffff168273ffffffffffffffffffffffffffffffffffffffff1614156125d6576040517f08c379a00000000000000000000000000000000000000000000000000000000081526004016125cd906140f9565b60405180910390fd5b6125df81611f6b565b1561261f576040517f08c379a000000000000000000000000000000000000000000000000000000000815260040161261690613fd9565b60405180910390fd5b61262b60008383612a9c565b6001600460008473ffffffffffffffffffffffffffffffffffffffff1673ffffffffffffffffffffffffffffffffffffffff168152602001908152602001600020600082825461267b9190614478565b92505081905550816003600083815260200190815260200160002060006101000a81548173ffffffffffffffffffffffffffffffffffffffff021916908373ffffffffffffffffffffffffffffffffffffffff160217905550808273ffffffffffffffffffffffffffffffffffffffff16600073ffffffffffffffffffffffffffffffffffffffff167fddf252ad1be2c89b69c2b068fc378daa952ba7f163c4a11628f55a4df523b3ef60405160405180910390a45050565b8173ffffffffffffffffffffffffffffffffffffffff168373ffffffffffffffffffffffffffffffffffffffff1614156127a3576040517f08c379a000000000000000000000000000000000000000000000000000000000815260040161279a90614059565b60405180910390fd5b80600660008573ffffffffffffffffffffffffffffffffffffffff1673ffffffffffffffffffffffffffffffffffffffff16815260200190815260200160002060008473ffffffffffffffffffffffffffffffffffffffff1673ffffffffffffffffffffffffffffffffffffffff16815260200190815260200160002060006101000a81548160ff0219169083151502179055508173ffffffffffffffffffffffffffffffffffffffff168373ffffffffffffffffffffffffffffffffffffffff167f17307eab39ab6107e8899845ad3d59bd9653f200f220920489ca2b5937696c31836040516128949190613f3c565b60405180910390a3505050565b6128ac8484846121cc565b6128b884848484612aa1565b6128f7576040517f08c379a00000000000000000000000000000000000000000000000000000000081526004016128ee90613f99565b60405180910390fd5b50505050565b606060008251141561292057604051806020016040528060008152509050612a97565b60006040518060600160405280604081526020016147b1604091399050600060036002855161294f9190614478565b61295991906144ce565b600461296591906144ff565b905060006020826129769190614478565b67ffffffffffffffff8111156129b5577f4e487b7100000000000000000000000000000000000000000000000000000000600052604160045260246000fd5b6040519080825280601f01601f1916602001820160405280156129e75781602001600182028036833780820191505090505b509050818152600183018586518101602084015b81831015612a56576003830192508251603f8160121c168501518253600182019150603f81600c1c168501518253600182019150603f8160061c168501518253600182019150603f81168501518253600182019150506129fb565b600389510660018114612a705760028114612a8057612a8b565b613d3d60f01b6002830352612a8b565b603d60f81b60018303525b50505050508093505050505b919050565b505050565b6000612ac28473ffffffffffffffffffffffffffffffffffffffff16612c38565b15612c2b578373ffffffffffffffffffffffffffffffffffffffff1663150b7a02612aeb611fd7565b8786866040518563ffffffff1660e01b8152600401612b0d9493929190613ef0565b602060405180830381600087803b158015612b2757600080fd5b505af1925050508015612b5857506040513d601f19601f82011682018060405250810190612b559190612ff7565b60015b612bdb573d8060008114612b88576040519150601f19603f3d011682016040523d82523d6000602084013e612b8d565b606091505b50600081511415612bd3576040517f08c379a0000000000000000000000000000000000000000000000000000000008152600401612bca90613f99565b60405180910390fd5b805181602001fd5b63150b7a0260e01b7bffffffffffffffffffffffffffffffffffffffffffffffffffffffff1916817bffffffffffffffffffffffffffffffffffffffffffffffffffffffff191614915050612c30565b600190505b949350505050565b600080823b905060008111915050919050565b828054612c5790614655565b90600052602060002090601f016020900481019282612c795760008555612cc0565b82601f10612c9257805160ff1916838001178555612cc0565b82800160010185558215612cc0579182015b82811115612cbf578251825591602001919060010190612ca4565b5b509050612ccd9190612cd1565b5090565b5b80821115612cea576000816000905550600101612cd2565b5090565b6000612d01612cfc846143c0565b61438f565b905082815260208101848484011115612d1957600080fd5b612d24848285614613565b509392505050565b6000612d3f612d3a846143f0565b61438f565b905082815260208101848484011115612d5757600080fd5b612d62848285614613565b509392505050565b600081359050612d7981614754565b92915050565b600081359050612d8e8161476b565b92915050565b600081359050612da381614782565b92915050565b600081519050612db881614782565b92915050565b600082601f830112612dcf57600080fd5b8135612ddf848260208601612cee565b91505092915050565b600082601f830112612df957600080fd5b8135612e09848260208601612d2c565b91505092915050565b600081359050612e2181614799565b92915050565b600060208284031215612e3957600080fd5b6000612e4784828501612d6a565b91505092915050565b60008060408385031215612e6357600080fd5b6000612e7185828601612d6a565b9250506020612e8285828601612d6a565b9150509250929050565b600080600060608486031215612ea157600080fd5b6000612eaf86828701612d6a565b9350506020612ec086828701612d6a565b9250506040612ed186828701612e12565b9150509250925092565b60008060008060808587031215612ef157600080fd5b6000612eff87828801612d6a565b9450506020612f1087828801612d6a565b9350506040612f2187828801612e12565b925050606085013567ffffffffffffffff811115612f3e57600080fd5b612f4a87828801612dbe565b91505092959194509250565b60008060408385031215612f6957600080fd5b6000612f7785828601612d6a565b9250506020612f8885828601612d7f565b9150509250929050565b60008060408385031215612fa557600080fd5b6000612fb385828601612d6a565b9250506020612fc485828601612e12565b9150509250929050565b600060208284031215612fe057600080fd5b6000612fee84828501612d94565b91505092915050565b60006020828403121561300957600080fd5b600061301784828501612da9565b91505092915050565b60006020828403121561303257600080fd5b600082013567ffffffffffffffff81111561304c57600080fd5b61305884828501612de8565b91505092915050565b6000806040838503121561307457600080fd5b600083013567ffffffffffffffff81111561308e57600080fd5b61309a85828601612de8565b92505060206130ab85828601612e12565b9150509250929050565b6000602082840312156130c757600080fd5b60006130d584828501612e12565b91505092915050565b600080604083850312156130f157600080fd5b60006130ff85828601612e12565b925050602083013567ffffffffffffffff81111561311c57600080fd5b61312885828601612de8565b9150509250929050565b6000806040838503121561314557600080fd5b600061315385828601612e12565b925050602061316485828601612e12565b9150509250929050565b6131778161458d565b82525050565b6131868161459f565b82525050565b600061319782614435565b6131a1818561444b565b93506131b1818560208601614622565b6131ba81614743565b840191505092915050565b6131ce81614601565b82525050565b60006131df82614440565b6131e9818561445c565b93506131f9818560208601614622565b61320281614743565b840191505092915050565b600061321882614440565b613222818561446d565b9350613232818560208601614622565b80840191505092915050565b6000815461324b81614655565b613255818661446d565b945060018216600081146132705760018114613281576132b4565b60ff198316865281860193506132b4565b61328a85614420565b60005b838110156132ac5781548189015260018201915060208101905061328d565b838801955050505b50505092915050565b60006132ca603d8361445c565b91507f796f7520617265206e6f7420746865206f776e6572206f66207468697320746f60008301527f6b656e2c20736f20796f752063616e6e6f742064652d6c6973742069740000006020830152604082019050919050565b6000613330600b8361446d565b91507f0922696d616765223a20220000000000000000000000000000000000000000006000830152600b82019050919050565b600061337060328361445c565b91507f4552433732313a207472616e7366657220746f206e6f6e20455243373231526560008301527f63656976657220696d706c656d656e74657200000000000000000000000000006020830152604082019050919050565b60006133d660268361445c565b91507f4f776e61626c653a206e6577206f776e657220697320746865207a65726f206160008301527f64647265737300000000000000000000000000000000000000000000000000006020830152604082019050919050565b600061343c601c8361445c565b91507f4552433732313a20746f6b656e20616c7265616479206d696e746564000000006000830152602082019050919050565b600061347c60128361445c565b91507f696e73756666696369656e742076616c756500000000000000000000000000006000830152602082019050919050565b60006134bc602f8361445c565b91507f7468697320746f6b656e206973206c6f636b65642c20736f206974206d61792060008301527f6e6f74206265206d6f64696669656400000000000000000000000000000000006020830152604082019050919050565b600061352260248361445c565b91507f4552433732313a207472616e7366657220746f20746865207a65726f2061646460008301527f72657373000000000000000000000000000000000000000000000000000000006020830152604082019050919050565b600061358860198361445c565b91507f4552433732313a20617070726f766520746f2063616c6c6572000000000000006000830152602082019050919050565b60006135c8602c8361445c565b91507f4552433732313a206f70657261746f7220717565727920666f72206e6f6e657860008301527f697374656e7420746f6b656e00000000000000000000000000000000000000006020830152604082019050919050565b600061362e60388361445c565b91507f4552433732313a20617070726f76652063616c6c6572206973206e6f74206f7760008301527f6e6572206e6f7220617070726f76656420666f7220616c6c00000000000000006020830152604082019050919050565b600061369460018361446d565b91507f22000000000000000000000000000000000000000000000000000000000000006000830152600182019050919050565b60006136d4602a8361445c565b91507f4552433732313a2062616c616e636520717565727920666f7220746865207a6560008301527f726f2061646472657373000000000000000000000000000000000000000000006020830152604082019050919050565b600061373a60298361445c565b91507f4552433732313a206f776e657220717565727920666f72206e6f6e657869737460008301527f656e7420746f6b656e00000000000000000000000000000000000000000000006020830152604082019050919050565b60006137a060208361445c565b91507f4552433732313a206d696e7420746f20746865207a65726f20616464726573736000830152602082019050919050565b60006137e0602c8361445c565b91507f4552433732313a20617070726f76656420717565727920666f72206e6f6e657860008301527f697374656e7420746f6b656e00000000000000000000000000000000000000006020830152604082019050919050565b600061384660208361445c565b91507f4f776e61626c653a2063616c6c6572206973206e6f7420746865206f776e65726000830152602082019050919050565b6000613886600c8361446d565b91507f7b0a09226e616d65223a202200000000000000000000000000000000000000006000830152600c82019050919050565b60006138c660298361445c565b91507f4552433732313a207472616e73666572206f6620746f6b656e2074686174206960008301527f73206e6f74206f776e00000000000000000000000000000000000000000000006020830152604082019050919050565b600061392c60128361445c565b91507f746f6b656e206e6f7420666f722073616c6500000000000000000000000000006000830152602082019050919050565b600061396c60028361446d565b91507f220a0000000000000000000000000000000000000000000000000000000000006000830152600282019050919050565b60006139ac60508361445c565b91507f5468697320746f6b656e20697320757020666f722073616c652c206974206d7560008301527f73742062652064652d6c6973746564206265666f72652069742063616e20617060208301527f70726f766520616e2061646472657373000000000000000000000000000000006040830152606082019050919050565b6000613a3860218361445c565b91507f4552433732313a20617070726f76616c20746f2063757272656e74206f776e6560008301527f72000000000000000000000000000000000000000000000000000000000000006020830152604082019050919050565b6000613a9e60178361445c565b91507f546f6b656e494420646f6573206e6f74206578697374210000000000000000006000830152602082019050919050565b6000613ade60168361445c565b91507f737472696e672063616e6e6f7420626520656d707479000000000000000000006000830152602082019050919050565b6000613b1e60318361445c565b91507f4552433732313a207472616e736665722063616c6c6572206973206e6f74206f60008301527f776e6572206e6f7220617070726f7665640000000000000000000000000000006020830152604082019050919050565b6000613b8460168361445c565b91507f7061796d656e74206e6f742073756666696369656e74000000000000000000006000830152602082019050919050565b6000613bc4604c8361445c565b91507f5468697320746f6b656e20697320757020666f722073616c652c206974206d7560008301527f73742062652064652d6c6973746564206265666f72652069742063616e20626560208301527f207472616e7366657272656400000000000000000000000000000000000000006040830152606082019050919050565b6000613c50601f8361445c565b91507f7072696365206d7573742062652067726561746572207468616e207a65726f006000830152602082019050919050565b6000613c9060388361445c565b91507f796f7520617265206e6f7420746865206f776e6572206f66207468697320746f60008301527f6b656e2c20796f752063616e206e6f742073656c6c20697400000000000000006020830152604082019050919050565b6000613cf660028361446d565b91507f0a7d0000000000000000000000000000000000000000000000000000000000006000830152600282019050919050565b6000613d3660238361445c565b91507f7468697320737472696e672068617320616c7265616479206265656e206d696e60008301527f74656400000000000000000000000000000000000000000000000000000000006020830152604082019050919050565b6000613d9c60238361445c565b91507f796f7520617265206e6f7420746865206f776e6572206f66207468697320746f60008301527f6b656e00000000000000000000000000000000000000000000000000000000006020830152604082019050919050565b613dfe816145f7565b82525050565b6000613e10828461320d565b915081905092915050565b6000613e27828561320d565b9150613e33828461320d565b91508190509392505050565b6000613e4b828561320d565b9150613e57828461320d565b9150613e6282613687565b91508190509392505050565b6000613e7a828461323e565b915081905092915050565b6000613e9082613879565b9150613e9c828561320d565b9150613ea78261395f565b9150613eb282613323565b9150613ebe828461320d565b9150613ec982613ce9565b91508190509392505050565b6000602082019050613eea600083018461316e565b92915050565b6000608082019050613f05600083018761316e565b613f12602083018661316e565b613f1f6040830185613df5565b8181036060830152613f31818461318c565b905095945050505050565b6000602082019050613f51600083018461317d565b92915050565b60006020820190508181036000830152613f7181846131d4565b905092915050565b60006020820190508181036000830152613f92816132bd565b9050919050565b60006020820190508181036000830152613fb281613363565b9050919050565b60006020820190508181036000830152613fd2816133c9565b9050919050565b60006020820190508181036000830152613ff28161342f565b9050919050565b600060208201905081810360008301526140128161346f565b9050919050565b60006020820190508181036000830152614032816134af565b9050919050565b6000602082019050818103600083015261405281613515565b9050919050565b600060208201905081810360008301526140728161357b565b9050919050565b60006020820190508181036000830152614092816135bb565b9050919050565b600060208201905081810360008301526140b281613621565b9050919050565b600060208201905081810360008301526140d2816136c7565b9050919050565b600060208201905081810360008301526140f28161372d565b9050919050565b6000602082019050818103600083015261411281613793565b9050919050565b60006020820190508181036000830152614132816137d3565b9050919050565b6000602082019050818103600083015261415281613839565b9050919050565b60006020820190508181036000830152614172816138b9565b9050919050565b600060208201905081810360008301526141928161391f565b9050919050565b600060208201905081810360008301526141b28161399f565b9050919050565b600060208201905081810360008301526141d281613a2b565b9050919050565b600060208201905081810360008301526141f281613a91565b9050919050565b6000602082019050818103600083015261421281613ad1565b9050919050565b6000602082019050818103600083015261423281613b11565b9050919050565b6000602082019050818103600083015261425281613b77565b9050919050565b6000602082019050818103600083015261427281613bb7565b9050919050565b6000602082019050818103600083015261429281613c43565b9050919050565b600060208201905081810360008301526142b281613c83565b9050919050565b600060208201905081810360008301526142d281613d29565b9050919050565b600060208201905081810360008301526142f281613d8f565b9050919050565b600060208201905061430e6000830184613df5565b92915050565b60006040820190506143296000830185613df5565b614336602083018461316e565b9392505050565b60006040820190506143526000830185613df5565b61435f60208301846131c5565b9392505050565b600060408201905061437b6000830185613df5565b6143886020830184613df5565b9392505050565b6000604051905081810181811067ffffffffffffffff821117156143b6576143b5614714565b5b8060405250919050565b600067ffffffffffffffff8211156143db576143da614714565b5b601f19601f8301169050602081019050919050565b600067ffffffffffffffff82111561440b5761440a614714565b5b601f19601f8301169050602081019050919050565b60008190508160005260206000209050919050565b600081519050919050565b600081519050919050565b600082825260208201905092915050565b600082825260208201905092915050565b600081905092915050565b6000614483826145f7565b915061448e836145f7565b9250827fffffffffffffffffffffffffffffffffffffffffffffffffffffffffffffffff038211156144c3576144c2614687565b5b828201905092915050565b60006144d9826145f7565b91506144e4836145f7565b9250826144f4576144f36146b6565b5b828204905092915050565b600061450a826145f7565b9150614515836145f7565b9250817fffffffffffffffffffffffffffffffffffffffffffffffffffffffffffffffff048311821515161561454e5761454d614687565b5b828202905092915050565b6000614564826145f7565b915061456f836145f7565b92508282101561458257614581614687565b5b828203905092915050565b6000614598826145d7565b9050919050565b60008115159050919050565b60007fffffffff0000000000000000000000000000000000000000000000000000000082169050919050565b600073ffffffffffffffffffffffffffffffffffffffff82169050919050565b6000819050919050565b600061460c826145f7565b9050919050565b82818337600083830152505050565b60005b83811015614640578082015181840152602081019050614625565b8381111561464f576000848401525b50505050565b6000600282049050600182168061466d57607f821691505b60208210811415614681576146806146e5565b5b50919050565b7f4e487b7100000000000000000000000000000000000000000000000000000000600052601160045260246000fd5b7f4e487b7100000000000000000000000000000000000000000000000000000000600052601260045260246000fd5b7f4e487b7100000000000000000000000000000000000000000000000000000000600052602260045260246000fd5b7f4e487b7100000000000000000000000000000000000000000000000000000000600052604160045260246000fd5b6000601f19601f8301169050919050565b61475d8161458d565b811461476857600080fd5b50565b6147748161459f565b811461477f57600080fd5b50565b61478b816145ab565b811461479657600080fd5b50565b6147a2816145f7565b81146147ad57600080fd5b5056fe4142434445464748494a4b4c4d4e4f505152535455565758595a6162636465666768696a6b6c6d6e6f707172737475767778797a303132333435363738392b2fa26469706673582212208194837786f239f47aee1acd728c4559a96f6f81cfe9ec5357698dc84780a10264736f6c634300080000333c7465787420666f6e742d66616d696c793d274d656e6c6f2720783d27302720793d27302720786d6c3a73706163653d2770726573657276652720746578742d616e63686f723d277374617274273e3c747370616e20783d2730272064793d27312e323038656d273e3c2f747370616e3e687474703a2f2f666f6e74732e63646e666f6e74732e636f6d2f6373732f6d656e6c6f272077696474683d2731313727206865696768743d273338342720666f6e742d73697a653d273132273e",
  "linkReferences": {},
  "deployedLinkReferences": {}
}